:020000040800F2
:10000000A8070020ED02000865010008670100084C
:10001000690100086B0100086D0100080000000084
:100020000000000000000000000000006F01000858
:10003000710100080000000073010008750100084C
:100040000703000807030008070300080703000868
:100050000703000807030008070300080703000858
:100060000703000807030008070300080703000848
:100070000703000807030008070300080703000838
:100080000703000807030008070300080703000828
:100090000703000807030008070300080703000818
:1000A0000703000807030008070300080703000808
:1000B00007030008070300080703000807030008F8
:1000C00007030008070300080703000807030008E8
:1000D00007030008310F00080703000807030008A2
:1000E00007030008070300080703000807030008C8
:1000F00007030008070300080703000807030008B8
:1001000007030008070300080703000807030008A7
:100110000703000807030008070300080703000897
:100120000703000807030008070300080703000887
:10013000DFF810D002F076FC0048004749010008C3
:10014000AFF30080A80700204FF4E13000F072FE0A
:1001500000F0CEFD01F0C1F8014802F005F9FBE71F
:100160000C0100207047FEE7FEE7FEE7FEE7704760
:1001700070477047704700000CB500220192009252
:100180005248016841F4803101604FF4A063016876
:1001900001F4003100910199491C0191009911B9B4
:1001A00001999942F3D10168890302D50121009197
:1001B00000E000920099012930D145490A6842F0D7
:1001C00010020A600A6822F003020A600A6842F01C
:1001D00002020A604168416041684160416841F43F
:1001E00080614160416821F47C114160416841F4C3
:1001F000E8114160016841F0807101600168890186
:10020000FCD5416821F003014160416841F00201E1
:1002100041604168C1F381010229FAD10CBDABE70D
:1002200010B52A48016841F0010101604168294A7E
:10023000114041600168284A11400160016821F4C1
:1002400080210160416821F4FE0141604FF41F01EB
:100250008160FFF7E4FF21494FF00060086010BDA6
:1002600010B51A4A506800F00C011D4B1D480029BA
:100270000ED004290ED008290ED003605168194A07
:10028000C1F30311121D515C0268CA40026010BD27
:100290000360F3E70360F1E7516801F470115368FC
:1002A00003F48033022404EB914133B153689B0380
:1002B00007D50D4B59430160E0E70B4B59430160F3
:1002C000DCE7074B59430160D8E70000001002400B
:1002D000002002400000FFF8FFFFF6FE08ED00E0FE
:1002E00000127A000400002000093D000648804703
:1002F00006480047FEE7FEE7FEE7FEE7FEE7FEE70B
:10030000FEE7FEE7FEE7FEE72102000831010008F4
:1003100010B59C49884209D10121042000F07DFAE2
:100320000021BDE81040042000F077BA96498842C9
:1003300009D10121082000F070FA0021BDE8104029
:10034000082000F06ABA9149884209D101211020A1
:1003500000F063FA0021BDE81040102000F05DBA03
:100360008B49884209D10121202000F056FA002152
:10037000BDE81040202000F050BA8649884209D1DB
:100380000121402000F049FA0021BDE81040402042
:1003900000F043BA8049884209D10121802000F051
:1003A0003CFA0021BDE81040802000F036BA7B49BD
:1003B00088420AD184150121204600F02EFA2046F9
:1003C000BDE81040002100F028BA10BD10B5012191
:1003D000084600F022FA0021BDE81040012000F09C
:1003E0001CBA2DE9F0410022CC7804F00F03E4069A
:1003F00001D58C7823430C784FF00F0714F0FF0FD2
:100400004FF0010C1CD005680CFA02F40E8826404F
:10041000A64211D1960007FA06F825EA080503FA64
:1004200006F848EA0505CE78282E02D0482E02D0DC
:1004300002E0446100E00461521C082AE4D3056034
:100440000A88FF2A1ED94568002202F108060CFA24
:1004500006F40E882640A64210D1960007FA06F848
:1004600025EA080503FA06F848EA0505CE78282E9D
:1004700000D14461CE78482E00D10461521C082A74
:10048000E3D34560BDE8F0814FF6FF7101800221A2
:1004900081700421C17070470246002092680A42B0
:1004A00000D001207047806880B27047024600206B
:1004B000D2680A4200D001207047C06880B27047FD
:1004C0000161704741617047002A01D001617047A6
:1004D00041617047C160704741F48032826181613F
:1004E000826181698069704710B52D4B1A684FF69B
:1004F0008074224042EA00100843186010BD294968
:10050000C8617047F0B5264C002801DAE36900E0C5
:100510006368C0F30346420D120185B2C0F3015770
:100520009540032F07D0C2020CD50322B24093435B
:1005300043F0706209E023F07062636823F0706337
:10054000636002E0AB4343F0706201B12A430028CC
:1005500001DAE261F0BD6260F0BD10B58A07120FEA
:100560000F23934021F003040D4921448C689C43E0
:100570008C608B68904003438B6010BD0949DC316F
:100580000860704700080140000C01400010014065
:100590000014014000180140001C014000200140EF
:1005A0000000014000002042B448016841F0010110
:1005B00001604168B24A114041600168B14A11408E
:1005C0000160016821F480210160416821F4FE018D
:1005D00041604FF41F0181607047A8490A6822F406
:1005E00080320A600A6822F480220A60B0F5803FF7
:1005F00007D0B0F5802F03D1086840F4A020086030
:100600007047086840F48030086070470346002057
:1006100059099A4A01290AD002290AD0516A03F0DD
:100620001F02012393400B4200D001207047116844
:10063000F5E7116AF3E718B5002000904FF4A064C5
:100640003120FFF7E3FF0099491C00910099A14276
:1006500001D00028F4D03120FFF7D8FF08B10120E5
:1006600018BD002018BD854A116821F0F80141EA43
:10067000C000106070478449086070477F4B5A681B
:1006800022F47C1208431043586070477E49086684
:1006900070477A4A516821F0030101435160704765
:1006A0007648406800F00C007047744A516821F0A9
:1006B000F001014351607047704A516821F4E061D4
:1006C0000143516070476D4A516821F4605141EA1D
:1006D000C00050607047694A002903D0517A014335
:1006E00051727047517A8143517270476649D831CF
:1006F00008607047614A516821F4404101435160EC
:1007000070475E49002220310A7001F82029012833
:1007100005D0042802D1052081F82000704701206F
:1007200081F82000704759490860704753490A6AA8
:1007300002430A627047554944390860704710B552
:100740004E4A516801F00C01514B002927D0042971
:1007500027D0082927D00360516801F0F00109096A
:100760004C4B5C5C0168E1404160546804F4E06417
:10077000240A1C5D21FA04F48460546804F4605473
:10078000E40A1B5DD940C160526802F44042920BFA
:10079000404B1B1F9A5CB1FBF2F1016110BD03607D
:1007A000DAE70360D8E7516801F47011536803F485
:1007B0008033022404EB914133B153689B0307D586
:1007C000354B59430160C7E7334B59430160C3E7D9
:1007D0002F4B59430160BFE7284A002903D05169D4
:1007E0000143516170475169814351617047234A08
:1007F000002903D091690143916170479169814358
:10080000916170471D4A002903D0D1690143D1612C
:100810007047D1698143D1617047184A002903D0DC
:10082000D1680143D1607047D1688143D16070477E
:10083000124A002903D011690143116170471169FF
:1008400081431161704711494039086070470E4972
:10085000C86470470949C87170470848416A41F047
:1008600080714162704701460020044A92680A4242
:1008700000D0012070470149887270470010024083
:100880000000FFF8FFFFF6FE0000424280044242F3
:1008900000127A001C00002000093D002A4908438C
:1008A0002A490860704770B50F23C2780126017885
:1008B000002A1ED0254A126802F4E062C2F5E06206
:1008C000120AC2F10404D3404578A54082781A4048
:1008D0002A43120101F1E02181F80024007800F0A0
:1008E0001F018E404009800000F1E020C0F8006147
:1008F00070BD01F01F0086404809800000F1E02033
:10090000C0F8806170BD124A114001430F48001FBA
:10091000016070470D4A121D002903D01168014380
:100920001160704711688143116070474FF0E021FA
:10093000042804D0086920F00400086170470869A1
:1009400040F00400086170470000FA050CED00E07B
:1009500080FFFF1F10B5E14988420AD101218C03B5
:100960002046FFF75AFF2046BDE810400021FFF760
:1009700054BFDB4988420AD101214C042046FFF7CD
:1009800057FF2046BDE810400021FFF751BFD54971
:1009900088420AD101218C042046FFF749FF2046F6
:1009A000BDE810400021FFF743BFCF4988420AD17C
:1009B0000121CC042046FFF73BFF2046BDE8104054
:1009C0000021FFF735BFC94988420AD101210C0532
:1009D0002046FFF72DFF2046BDE810400021FFF71D
:1009E00027BF10BD30B585B004460D46208A4CF6B1
:1009F000FF710840E98801432182A0894EF6F31176
:100A00000840A9882A8911436A8902431143A181B8
:100A1000A08A4FF6FF410840A9890143A182684698
:100A2000FFF78DFEAD48844201D1039800E00298A3
:100A3000A189090408D500EBC00101EB0010296869
:100A40004900B0FBF1F007E000EBC00101EB001042
:100A500029688900B0FBF1F06422B0FBF2F10901D2
:100A60000B096FF018056B4300EB8300A3891D048D
:100A70004FF0320307D503EBC000B0FBF2F000F0FB
:100A80000700084306E003EB0010B0FBF2F000F0B3
:100A90000F000843208105B030BD4FF416510160AE
:100AA00000218180C18001810C22428181817047B7
:100AB00010B5038A4FF2FF0213400A884C88224384
:100AC0008C88C9880C4322431A43028210BD00213E
:100AD000018041808180C1807047002904D08189D4
:100AE00041F4005181817047818921F40051818155
:100AF000704710B540F66A13C1F3421301F01F04AA
:100B00000121A140012B07D0022B07D014303AB1AC
:100B100002680A43026010BD0C30F8E71030F6E7B7
:100B200002688A43026010BD002A03D0828A0A4309
:100B300082827047828A8A4382827047028A22F0C8
:100B40000F020282028A0A4302827047828922F4DB
:100B50000062828182890A4382817047002904D021
:100B6000818941F0020181817047818921F0020170
:100B700081817047028A22F020020282028A0A439F
:100B800002827047002904D0018A41F48041018229
:100B90007047018A21F4804101827047C1F3080146
:100BA000818070478088C0F308007047818941F0D8
:100BB000010181817047028BD2B20283028B42EA2B
:100BC000012101837047028B02F47F420283028B72
:100BD0000A4302837047002904D0818A41F0200132
:100BE00081827047818A21F020018182704700292B
:100BF00004D0818A41F0100181827047818A21F0FE
:100C0000100181827047002904D0818A41F00801D7
:100C100081827047818A21F0080181827047002912
:100C200004D0818941F40041818170478189C1F3F9
:100C30000E0181817047002904D0818A41F400614E
:100C400081827047818A21F4006181827047828AA3
:100C500022F004028282828A0A438282704700293B
:100C600004D0818A41F0020181827047818A21F09B
:100C70000201818270470246002012880A4200D099
:100C8000012070478A05C9430180704770B5002470
:100C900040F66A12C1F3421301F01F05012606FA5D
:100CA00005F2012B0CD0022B0DD0838A1340090AC8
:100CB0008E40008830400BB100B10124204670BD49
:100CC00083891340F3E7038A1340F0E740F66A1282
:100CD0000A0A01219140C943018070470038014050
:100CE0000044004000480040004C004000500040DC
:100CF00008B5FFF795FA01211020FFF778FD4FF6B0
:100D0000FF70ADF8000001208DF8020010208DF872
:100D1000030069463348FFF764FB08BD2DE9F04145
:100D20000646314D0020287000242E4F4FF496784F
:100D300051E02878002853D1FE213846FFF7CAFB3E
:100D4000404600F064F82878002849D1FD21384653
:100D5000FFF7C0FB404600F05AF8287800283FD142
:100D6000FB213846FFF7B6FB404600F050F82878E4
:100D7000002835D1F7213846FFF7ACFB404600F09C
:100D800046F8287800282BD1EF213846FFF7A2FB40
:100D9000404600F03CF82878002821D1DF21384671
:100DA000FFF798FB404600F032F82878002817D16A
:100DB000BF213846FFF78EFB404600F028F8287820
:100DC00000280DD17F213846FFF784FB404600F014
:100DD0001EF8641CE4B2B44202D228780028A8D0DD
:100DE000BDE8F08100100140000000204FF0E0213C
:100DF00000EBC00048610120086100238B61086995
:100E0000C20701D0C003FAD50B618B61704742F273
:100E1000283148434FF0E021486101200861002358
:100E20008B610869C20701D0C003FAD50B618B61E1
:100E30007047000030B587B00446012144F2040039
:100E4000FFF7D5FC4FF40070ADF8180003208DF8C3
:100E50001A0018208DF81B00454D06A92846FFF7FB
:100E6000C0FA2815ADF8180004208DF81B0006A95B
:100E70002846FFF7B6FA02940020ADF80C00ADF852
:100E80000E00ADF81000ADF814000C20ADF8120003
:100E9000384C02A92046FFF7A5FD01212046FFF7A7
:100EA0001CFE012240F225512046FFF722FE25209C
:100EB0008DF8040001208DF805008DF806008DF8EE
:100EC000070001A8FFF7EFFC07B030BD70B505467D
:100ED000284C80212046FFF7CEFE0028F9D0294675
:100EE0002046BDE87040FFF759BE10B5044602E049
:100EF000641CFFF7EBFF20780028F9D110BD10B576
:100F00000446E0B2FFF7E2FF204610BD1A490A8806
:100F10004B889A4201D100207047184A4B88D25C16
:100F200002704888401C00F07F0048800120704714
:100F300010B5104C40F225512046FFF7A7FE0028BF
:100F400011D02046FFF72EFEC0B203280CD00A4A6B
:100F50001188491C01F07F015388994203D0074B47
:100F600014881855118010BD05490120087010BD66
:100F700000080140003801402C0000208C000020B7
:100F80000000002000210278302A04D14378782B19
:100F900004D0582B02D0302A02D006E0032112E000
:100FA0004378622B04D0422B02D0302A02D00AE0D0
:100FB000012108E0022106E002782E2A03D14278BE
:100FC0000AB1042103E010F8012B002AF4D10846ED
:100FD0007047A0F13001092901D8C8B27047A0F1CB
:100FE0006101052902D85738C0B27047A0F141010C
:100FF000052902D83738C0B2704700207047014633
:101000000878272800D1491C00200A785C2A01D0E2
:101010001046704749786E290FD004DC3029F8D08B
:10102000622904D105E0722905D0742907D0084649
:101030007047082070470D2070470A20704709202C
:1010400070472DE9F04106463446002530782228C5
:1010500001D1741C2646002707E05C280CD022280A
:1010600010D07055641C6D1CADB220780028F4D1EE
:1010700077553046BDE8F0812046FFF7C0FF705538
:10108000641CEFE77755EDE72DE9F04782460A2724
:1010900000244FF00108002600259AF800002D28B2
:1010A00001D14FF0FF38B8F1FF3F0ED0002050447F
:1010B000FFF768FF8146B9F1010F0ED0B9F1020FB9
:1010C00008D0B9F1030F0AD101E00120EFE71027A2
:1010D000022404E00827012401E0022702240AEB8D
:1010E0000401B8F1FF3F02D000200C180BE00120F2
:1010F000FBE72E280ED0FFF76CFF06FB070605EB7B
:1011000085004500641C20780028F2D1B9F1040F55
:1011100003D016E00125641CF5E795B1404601F0C7
:101120003DFA0446284601F042FA0546304601F0F1
:101130003EFA294601F0F4F92146BDE8F04701F0F6
:10114000BDB906FB08F0BDE8F08770B5044615464A
:101150000023491C2046626E00F083F9014629B144
:10116000204600F074FD2860002070BD4FF0FF3075
:1011700070BD70B5054608461C460178002A03D0AC
:10118000242925D142781AB3272906D1427822B1E1
:10119000FFF735FF2060002070BD2D2903D0A1F19D
:1011A0003002092A04D8FFF76FFF2060002070BDCD
:1011B000242907D142782AB1014622462846BDE8B3
:1011C0007040C2E721B1FFF73CFF2060002070BDF6
:1011D0004FF0FF3070BD2DE9F04F8BB083460D46C8
:1011E00014469846202103A801F039F9A878661E14
:1011F00000F00F07B74200DC671E00244FF0FF3AF3
:101200000DF10C090EE0601C09EB840358F8201066
:1012100000225846FFF7ADFF18B150460BB0BDE8AD
:10122000F08F641CB442EEDB082F36D2DFE807F003
:1012300004070B10151A212AA8688047EEE7A96851
:1012400003988847EAE7AA68DDE903019047E5E7E4
:10125000AB6803A807C89847E0E7AC6803A80FC8C5
:10126000A047DBE7AC680798009003A80FC8A04729
:10127000D4E7AC68DDE90701CDE9000103A80FC898
:10128000A047CBE7AC68DDE907120998CDE9001269
:10129000029003A80FC8A047C0E75046BEE7000071
:1012A00070B505460E46002404E0285DFFF70EFEEB
:1012B000641CA4B2B442F8D330B270BD70B5054618
:1012C0000E46002405E02819FFF720FE18B1641C23
:1012D000A4B2B442F7D320B270BDAFF23B010548CF
:1012E0004167AFF2270101674FF4007200F1780106
:1012F00000F02BB90C01002011A001F033BC10B597
:10130000C0B2FFF70BFD002010BD2DE9F0410646ED
:101310000D460124771E0AE055F824100BA001F0B9
:1013200021FCBC4202DA0AA001F01CFC641CB4429D
:10133000F2DB08A001F016FC0020BDE8F0810000FF
:1013400064656D6F206F6B0D0A000000257300004F
:10135000200000000D0A000010B5034608460022D8
:1013600001465C6F002C03D1002010BD521C92B2CC
:1013700011F8013B002BF9D11146A04780B210BDF6
:1013800010B5044694F86C00C00718D019B1F8A144
:101390002046FFF7E1FF206841682046FFF7DCFFA9
:1013A000F4A12046FFF7D8FFA16801B9F2A12046B9
:1013B000FFF7D2FF2046BDE81040F0A1CCE7F0488F
:1013C000016B2046BDE81040C6E7082300220A72E0
:1013D0000AE000F00F02092A01D9573200E030324A
:1013E0005B1EDBB2CA5400090028F2D1C3F1080029
:1013F00040B2704700B50021E24B30225A54491CDC
:10140000C9B20929FAD3417801F00F01012901D8A5
:10141000406800BD072901D8406800BD082901D8EF
:10142000406800BD4068D749FFF7CFFFD54800BDF1
:101430000A78002A09D04B7803F00F03082B04D058
:1014400003685BB11B781A4208D090F86C00C007A3
:1014500002D14878C00601D5002070474FF0FF3018
:1014600070472DE9F04780468A4616469946D8F8D7
:101470006410B8F86800711AA0EB111087B200244C
:101480001EE006EB0415687800F00F00092815D05F
:1014900029464046FFF7CCFF80B92846FFF7AAFF50
:1014A0000146B9F1000F05D04A46504600F0F7FF5B
:1014B00070B103E0504600F0E4FF30B1641CA4B208
:1014C000BC42DED30020BDE8F08706EB0410FAE74B
:1014D00006EB0410F7E770B504460D462560A868D2
:1014E00000281ED000F0C6FFD8B1E08E022804D339
:1014F000A169A86800F0C5FF98B194F86C0020F0CD
:10150000010084F86C009E4D2046A96BFFF724FF74
:1015100094F86C00C00709D020462968BDE87040E7
:101520001AE794F86C0040F00100EAE770BD002172
:10153000944A143A52F8213023B1491C09B20529C2
:10154000F8DB704742F82100704710B504460020D0
:10155000A081E081206094F86C3043F0010384F8AE
:101560006C3021610923B2FBF3F2A286A4F860007B
:10157000A4F85C00A4F85E00A38E421C03FB0213D7
:1015800004EB8000C36310B20828F5DB7E48606678
:101590007E49081A0009A4F868002046FFF7C7FF33
:1015A00000237BA12046626EFFF75BFF01462046C9
:1015B000FFF791FF2046BDE810400121E0E6002141
:1015C000704A143A52F82130834203D1002042F885
:1015D00021007047491C09B20529F3DB7047002040
:1015E000684A143A52F8201031B191F86C1089070A
:1015F00002D552F820007047401C00B20528F1DBEC
:101600000020704713B5426F012101A890471CBD0F
:1016100070B505460B46002418466A6F002A04D1AF
:10162000002070BD401C641CA4B2017819B10D29C2
:1016300001D00A29F6D1242C07D924211846904735
:101640006A6F032154A0904702E021461846904754
:10165000242C01D9242070BD272070BD0FB410B5F3
:10166000A2B00446002C0ED026AB802102A8259AF9
:1016700001F088FA00210191802800DD802081B2EC
:10168000626F02A8904722B010BC5DF814FB30B521
:101690000B220346002800DA43420024CC720A24BD
:1016A00009E093FBF4F504FB15353035521ED2B238
:1016B0008D5493FBF4F3002BF3D1002805DAA2F14B
:1016C0000102D2B24FF02D00885405D1A2F10102DF
:1016D000D2B24FF030008854C2F10B0040B230BD9E
:1016E0000346002002E01A54401C80B20A5C002A23
:1016F000F9D100211954704730B505460020002269
:1017000005E09C4209D1401C80B2521C92B2AC5CF4
:10171000002C02D08B5C002BF3D130BD4178C06827
:1017200001F00F0170472DE9F04106460D462846AD
:10173000FFF760FE01463046FFF70EFEC0F11600CF
:1017400004B2002C00DC042420213046FFF75AFFAD
:10175000641E24B2002CF7D16878094900F00F000C
:1017600001281BD8096C3046FFF7F6FD2FE000007A
:101770000D0A00003A0000002F00000024200000A5
:10178000340000209803002098380008E839000849
:101790007A65726F000000002E2E2E00072804D8F4
:1017A000496C3046FFF7D8FD11E0082804D8896C51
:1017B0003046FFF7D1FD0AE0092804D8C96C30464D
:1017C000FFF7CAFD03E0096D3046FFF7C5FDFCA138
:1017D0003046FFF7C1FD07240127287807FA04F1F6
:1017E000084201D0782100E02D213046FFF70AFFA2
:1017F000641E64B2002CF0DAF1A13046FFF7ACFDB4
:101800002846FFF78BFF01463046FFF701FFAFF296
:10181000A0013046BDE8F0419EE52DE9F0410646C5
:10182000776EE84881683046FFF796FD002411E0A6
:1018300007EB0415687800F00F00012808D8294646
:101840003046FFF7F5FD18B929463046FFF76BFF24
:10185000641C24B2B6F86800A042E9DCBDE8F0815F
:101860002DE9F0410646776ED648C1683046FFF74D
:1018700073FD002412E007EB0415687800F00F00F8
:10188000801E052808D829463046FFF7D1FD18B933
:1018900029463046FFF747FF641C24B2B6F86800BB
:1018A000A042E8DCDAE72DE9F0410646776EC5484C
:1018B00001693046FFF750FD002413E007EB0415E3
:1018C000687800F00F0107290AD9082908D82946A5
:1018D0003046FFF7ADFD18B929463046FFF723FF24
:1018E000641C24B2B6F86800A042E7DCB6E72DE934
:1018F000F0410646776EB34841693046FFF72CFD4C
:10190000002413E007EB0415687800F00F010829A4
:101910000AD9092908D829463046FFF789FD18B9A0
:1019200029463046FFF7FFFE641C24B2B6F8680073
:10193000A042E7DC92E770E770B505460C4603E08D
:10194000A1A12846FFF708FD641EE4B2F8D270BDDD
:1019500070B50546A889E989401A04B205E020213E
:101960002846FFF74FFE641E24B2002CF7DC297BCB
:101970002846BDE87040DFE770B50446A28EA08916
:10198000521E90420DDB8F4841682046FFF7E4FC71
:1019900001212046FFF7F4FC20462169BDE8704094
:1019A000DAE4E2890025824214D100F10102A28129
:1019B00022691154A28920698554E08900F101004F
:1019C000E08194F86C00C00700D12A212046BDE8D0
:1019D000704017E637D2801A00B206E0E389226928
:1019E0001344421E9E5CC65410B20028F6DCE08907
:1019F000421CE28122691154A0892169401C80B2F5
:101A0000A0810D54E089401E05B20CE094F86C00F2
:101A1000C00702D02069415D00E02A212046FFF77F
:101A2000F1FD6D1C2DB2A089A842EFDCA089E189EF
:101A3000401A05B205E008212046FFF7E3FD6D1EC0
:101A40002DB2002DF7DC70BD70B50446481C03D0E4
:101A50000022E08910B103E00122FAE7012950D009
:101A6000A389984201D14D1C4BD00025984201D149
:101A7000012901D0104612E0401EE0815B1E98B2A1
:101A8000A08121690D542046BDE87040012153E733
:101A900023691944431E465CCE54401C00B2A389FE
:101AA000E1895B1A8342F3DCA089401EA08132B930
:101AB000E089401EE08108212046FFF7A3FDA189AF
:101AC00020694554B4F90E5006E02069415D204676
:101AD000FFF798FD6D1C2DB2A089A842F5DC2021EE
:101AE0002046FFF78FFDA089E189401A401C05B20E
:101AF00005E008212046FFF785FD6D1E2DB2002D63
:101B0000F7DC70BD2DE9FF4F84B0DDF844B04FF035
:101B1000010C0024009401940294039400250026F3
:101B2000002104E0002442F82140491C09B2594533
:101B3000F8DB0021DFF88C90A9F1040953E0B5B976
:101B4000445C9C420CD0BCF1010F09D15E4507DA20
:101B500047183446761C42F824704FF0000C06E01B
:101B60009C4201D0202C02D1BCF1000F13D00024E4
:101B7000475C0DEB050ABDB109EB440898F80180FC
:101B8000474511D11AF8018C19F814E0F0450BD132
:101B90006D1EEDB21EE00024445444186478202CDD
:101BA0001FD04FF0010C1CE019F8148047450DD1EF
:101BB00019F814806C1C0DF8058004F00F0509E07D
:101BC000202000003400002008200800641CE4B23B
:101BD000002CD0D05C2F04D1441864780CB1491C7F
:101BE00089B2491C89B2059CA142A8D308B03046ED
:101BF000BDE8F08F18B5044608200090A189202385
:101C000004F114022069FFF77DFFE08618BD2DE97D
:101C1000F04106460025002715E006EB85046169C2
:101C20000878222803D10F706069401C60616069E8
:101C300000F020FC81B26269491E505C222800D16C
:101C400057546D1CADB2F08EA842E6D806E60020CF
:101C50004A7802F00F02921E062A06D2DFE802F04E
:101C600003060A0D0D0F8868006870478868B0F990
:101C700000007047886800787047886870478868F7
:101C8000416809B10068084700207047FEB5054665
:101C90000C46FEA0D0E900128068CDE90012029047
:101CA00021462846FFF7D3FF064628466168FFF71E
:101CB00053FBF9A12846FFF74FFB607800F00F00B7
:101CC000052824D069463046FFF7E1FCC0F10B003F
:101CD0006C4601192846FFF73FFBF0A12846FFF7A5
:101CE0003BFB002030222254401C00B20B28FADBC0
:101CF00069463046FFF769FB69462846FFF72CFB2B
:101D0000AFF294512846FFF727FB3046FEBDE5A110
:101D10002846FFF721FB31462846FFF71DFBE1A1CE
:101D20002846FFF719FBEBE770B505460C46104651
:101D30006178DD4A4B0604D52846116AFFF70CFB93
:101D400027E001F00F01891E062922D2DFE801F009
:101D50000306090C1217A16808601AE0A168088040
:101D600017E0A168087014E0A26801461046FFF76A
:101D7000B7FC0EE02846D169FFF7EEFA09E0A1684A
:101D80008A6832B10B681BB101461846904700E0E3
:101D9000904721462846BDE8704077E72DE9F0419D
:101DA00005460E46FFF71BFC0446200017D0002313
:101DB0002946626EFFF755FB0146BB4F89B1487853
:101DC00000F00F00801E062811D329462046FFF799
:101DD000C3FA2046796AFFF7BFFA00203EE50020EB
:101DE0003CE52046B96AFFF7B7FA002036E53246EF
:101DF0002046BDE8F04197E7FEB506460D46A3A094
:101E0000D0E900128068CDE900120290A7A1304607
:101E1000FFF7A2FA69462846FFF739FCC0F10B002C
:101E20006C4601193046FFF797FA9CA13046FFF740
:101E300093FA00223023A354521C12B20B2AFADB6D
:101E400069462846FFF7C1FA69463046FFF784FA2B
:101E5000AFF2E4613046FFF77FFAFEBD2DE9F041B5
:101E600004460D46002794F86C0040F0020084F808
:101E70006C00687804F1140601070BD000F00F0025
:101E8000012817D0811E052923D829462046FFF7AF
:101E9000FDFE24E02046FFF7BAFEAA68E08E314638
:101EA000904707466878800619D439462046FFF7E0
:101EB000A3FF14E0E28E334629462046FFF78BF954
:101EC0000746687880060AD439462046FFF794FF13
:101ED00005E0082803D129462046FFF7FCFA14F84C
:101EE0006C0F20F0020020703846B7E410B50446AD
:101EF00020688168206900F0C4FA01006A4807D0B0
:101F0000416B2046FFF728FA0020A081E08110BD38
:101F100094F86C1041F0010184F86C1001682046BF
:101F2000FFF71AFAF0E770B504460025A4F86050F0
:101F3000B4F85C0000280CD0B4F85E00216900B948
:101F40000820401E04EB8000C06B00F09AFA0028C5
:101F50001ED0B4F85E00216904EB8000C06BFFF76F
:101F6000BFFB20B1B4F85E00401CA4F85E00B4F8DA
:101F70005C00401C80B2A4F85C00082802D908204C
:101F8000A4F85C00B4F85E00082801D3A4F85E5001
:101F900070BD70B504460025002919DD04F15C040C
:101FA000B4F90420A2F10100A08020886188A4F186
:101FB0005C04884201D9034600E00B465B429A422A
:101FC00012DC884200D808464042A4F860000BE0CA
:101FD00009DAB4F86000401C00B2A4F860000028E0
:101FE00002DDA4F8605070BD2046FFF7B1FCB4F9E3
:101FF0006000C8B1B4F85E1008440830C11700EBA7
:10200000517121F00701401A04EB8000C16B206977
:10201000FFF766FBA0810028E5D0E081204621691A
:10202000BDE87040FFF798B9A581E58170BD90F8D3
:102030006C2022F0040280F86C209DE470B5044608
:10204000A089002843D0216900250D5494F86C0024
:10205000C00738D02046FFF766FF2046FFF7CAFDCD
:10206000E581A581E08E002831D0AFF6FC01204645
:10207000FFF772F900232046626E6169FFF7F1F9FC
:102080000146C9B12046BDE87040E7E63030303047
:102090003030303030303000203D20002C2030787F
:1020A000000000002200000034000020526574751A
:1020B000726E3A2000000000E34881692046BDE8C6
:1020C0007040FFF749B92046BDE870400EE770BD8B
:1020D00001215EE74FF0FF315BE7C18982899142C0
:1020E00005D24A1CC2810269515CFFF78BBA704766
:1020F00010B50446E089002806D008212046FFF7E5
:1021000081FAE089401EE08110BD2DE9F05F0446B0
:10211000A78E4FF0000B0025A089002807D0216969
:10212000AA4601F800A0D4F8649000263BE02046BF
:10213000FFF701FC2046BDE8F05F0121FFF720B961
:1021400009EB061841462046FFF772F948BB4046A6
:10215000FFF750F901462069FFF7CEFAA1898842BE
:102160001FD1D5B1012D04D1AFF6FC112046FFF7E8
:10217000F3F809EB0B1B59462046FFF7D4FA40460B
:10218000FFF738F980465846FFF734F94146FFF724
:10219000B3FA874200D8384607461FFA86FB6D1C03
:1021A000ADB2761C36B2B4F86800B042C8DC002D7F
:1021B00025D0012D02D12046FFF7CAFB09EB0B10F9
:1021C0000646FFF717F901462069FFF789FAA08153
:1021D000012D08D931462046FFF7A5FA01212046F6
:1021E000FFF7CEF8A781A189206900F801A0A08996
:1021F000E08120462169BDE8F05FFFF7ADB8BDE89A
:10220000F09F012120E44FF0FF311DE410B504469A
:102210002046FFF713FF2046BDE810400121FFF7DD
:10222000AFB870B50546002328466A6EFFF719F966
:1022300004468548ECB1C16A2846FFF78DF8204670
:10224000FFF7D8F801462846FFF786F8AFF6E021F9
:102250002846FFF781F82046FFF760FA0146284636
:10226000FFF77AF8AFF6F8212846BDE87040FFF78F
:1022700073B881692846BDE87040FFF76DB810B5A6
:1022800003460C46FFF7ABF900280AD0012B04D017
:1022900007DD6168BDE81040C3E7BDE81040FFF707
:1022A0004ABB10BD2DE9F05F05468846B8F1000F26
:1022B000A5D018244FF00009A86B10F47F4F03D06D
:1022C00000246FF0FF090BE010F47F0F03D0082407
:1022D000DFF8789104E0000E02D010244FF07F491F
:1022E000D5F864A00026B3462FE00AEB06177878ED
:1022F00000F00F00092826D139462846FFF798F844
:1023000008BB7868AA6B00EA090191421BD1FF2340
:1023100003FA04F1084008FA04F1884213D10A4391
:10232000AA634FF000082CB1A4F1080178688B4033
:10233000184208D10AEB0610816809B1284688477F
:10234000C5F838B005E0761C36B2B5F86800B04282
:10235000CBDCB8F1000F06D0C5F838B041462846AE
:10236000BDE8F05F63E64AE738B50446226F002A0D
:1023700009D0012168469047012804D19DF800103A
:102380002046FFF78FFF38BD10B5FFF728F900286A
:1023900003D0BDE81040FFF786BA10BD10B5FFF7B7
:1023A0001EF9002803D0BDE81040FFF736BA10BD73
:1023B00010B5FFF714F9002803D0BDE81040FFF76F
:1023C0004FBA10BD10B5FFF70AF9002803D0BDE8D9
:1023D0001040FFF78CBA10BD10B5FFF700F90028C8
:1023E00005D01949896BBDE81040FEF7B5BF10BD97
:1023F0002DE9F04104460F464FF0FF36002C12D075
:102400008FB194F86C00C0F34005384600F032F804
:10241000A28E521E904208D90B4841682046FEF712
:102420009BFF304612E4304610E439462069FFF73E
:1024300057F9A0812046FFF701FE14F86C0F65F3F1
:10244000410020700020C9E4340000200000FFFF9C
:10245000D2B201E000F8012B491EFBD270470022E6
:10246000F6E710B513460A4604461946FFF7F0FF93
:10247000204610BD421C10F8011B0029FBD1801A18
:10248000704710B5002200E0521C835C8C5CA342B4
:1024900001D1002BF8D1D8B2E1B2401A10BD30B54D
:1024A00005460020034600E05B1C934205D2EC5C2D
:1024B000C85C201A01D1002CF6D130BD80EA01029F
:1024C00010B502F00043400022D04A001FD0010E98
:1024D00001EB1261C0F35600C2F3560240F4000053
:1024E00042F40002A0FB022000047F39140400D053
:1024F000401C50EA124001D44000491EC2B20C06F2
:1025000004EBD010401C4008802A02D003E00020D9
:1025100010BD20F00100002900DA0020184310BD92
:1025200030B480EA010202F0004530F0004221F0B0
:10253000004013D090B1C30DD40DC2F31601C0F307
:102540001600E41A41F4000140F400027D34914287
:1025500001D3641C00E04900002C02DA30BC0020EA
:1025600070474FF400000023914201D3891A0343BE
:1025700040084FEA4101F7D151B1914202D14FF0E9
:10258000004105E002D24FF0010101E06FF00101CE
:1025900003EBC450284430BC00F055B8C10F80EAAA
:1025A000E0700844CA079623002100F055B896232E
:1025B0000022114600F050B830B50B46014600200D
:1025C0002022012409E021FA02F59D4205D303FAF5
:1025D00002F5491B04FA02F52844151EA2F1010276
:1025E000F1DC30BD2DE9F05F0546002092469B46A8
:1025F00088460646814640241BE028464146474619
:10260000224600F030FA53465A46C01A914110D380
:1026100011461846224600F017FA2D1A67EB0108FA
:102620004F4622460120002100F00EFA17EB000968
:102630004E41201EA4F10104DFDC484631462A4603
:102640004346BDE8F09F0029A8BF7047401C4900E1
:1026500008BF20F00100704710B4B0FA80FC00FA07
:102660000CF050EA010404BF10BC704749B1CCF132
:10267000200421FA04F411FA0CF118BF01212143BE
:102680000843A3EB0C01CB1D4FEA00614FEA102079
:1026900042BF002010BC704700EBC350104400291B
:1026A000A4BF10BC7047401C490008BF20F00100C7
:1026B00010BC70472DE9FE4F804681EA0300C00F31
:1026C0000C46009021F0004123F00045B8EB0200D9
:1026D000A94105D24046214690461C460B4602467B
:1026E00023F00040104347D0270DC7F30A00C3F37F
:1026F0000A510290401A019040286BDAC3F313008C
:1027000040F4801B0098924620B10023D2EB030ACC
:1027100063EB0B0B01985946C0F14002504600F0A4
:1027200093F906460D4650465946019A00F0ABF91A
:1027300010EB08006141002487EA115284EAE77334
:102740001A4340D0009A62B3019A012A4FEA075215
:1027500015DC001B61EB02014FF0004202EA075258
:10276000CDE90042001C41F5801132462B4600F0B5
:10277000ABF903B0BDE8F08F40462146F9E7001BF6
:1027800061EB0201001C41F5801300185B41201829
:10279000A2F5001747EB030140EAD570B6196D4169
:1027A00011E06D084FEA360645EAC0754FEA075258
:1027B000001B61EB0201001C41F5801149084FEA42
:1027C00030000019514132462B4603B0BDE8F04FAE
:1027D00000F06BB90098012240000023D0EB020208
:1027E00063EBE073009821464FEAE074B8EB000019
:1027F00061EB0401E9E783F000435BE781F000410E
:1028000058E72DE9FE4F81EA030404F0004421F06B
:10281000004100944FF0000B23F0004350EA010404
:102820005ED052EA03045BD0C3F30A54C1F30A55E5
:102830002C44A4F2F3340194A0FB0254C1F313011D
:1028400041F48011C3F3130343F4801301FB0244EA
:1028500000FB034E840A970A44EA815447EA8357EF
:10286000A4FB076802958D0A05FB07854FEA932CA8
:1028700004FB0C542705029D4FEA065847EA163719
:10288000B5EB08056EEB070C870E920E47EA811731
:1028900042EA8312A7FB0201B6EB0B0164EB0004D2
:1028A0002B0D43EA0C335E1844EB1C50DA465146BC
:1028B000E7FB0201C5F313044FEA0B3343EA145359
:1028C0004FEA0432019C43EA0603A4F10C0402948B
:1028D000009CCDE900B400F0F7F803B0BDE8F08F3C
:1028E00000200146F9E72DE9F04D81EA030404F0E8
:1028F000004B21F0004514464FF0000A23F0004140
:1029000050EA050220D054EA01021DD0C5F30A574F
:102910000246C5F31303C1F31300C1F30A5640F492
:10292000801543F48013A7EB0608101BD64608F267
:10293000FD3873EB050002D308F1010801E092189D
:102940005B41B8F1000F03DA00200146BDE8F08DCD
:1029500000204FF48011064684460EE0171B73EBEF
:10296000050705D3121B63EB050306434CEA010C74
:1029700049084FEA300092185B4150EA0107EDD157
:1029800052EA030012D082EA040083EA05010843F8
:1029900005D0101BAB4106D20122002306E0002225
:1029A0004FF0004302E06FF0010253101AEB0600F3
:1029B0004CEB085110EB0A0041EB0B01BDE8F04D68
:1029C00000F073B8C1F30A52C1F3130140F2FF33B0
:1029D00041F480119A4202DA00200146704740F229
:1029E00033439A42A2F2334202DC524200F03BB837
:1029F00000F02AB830B5041E71F1000404DB4FF07A
:102A00000044404264EB0101141E73F1000405DB35
:102A10001C464FF00043524263EB0403994208BF47
:102A2000904230BD064C074D06E0E06840F00103DF
:102A300094E8070098471034AC42F6D3FDF77CFBCE
:102A40007838000898380008202A04DB203A00FA79
:102A500002F1002070479140C2F1200320FA03F3F5
:102A6000194390407047202A04DB203A21FA02F0F3
:102A70000021704721FA02F3D040C2F120029140B8
:102A8000084319467047202A06DBCB17203A41FA43
:102A900002F043EAE07306E041FA02F3D040C2F1EB
:102AA0002002914008431946704710B5141E73F177
:102AB000000408DA401C41F1000192185B411A43FE
:102AC00001D120F0010010BD2DE9F04D92469B464A
:102AD00011B1B1FA81F202E0B0FA80F220329046F0
:102AE000FFF7B2FF04460F4640EA0A0041EA0B0135
:102AF00053465A46084313D0114653EA010019D0F1
:102B0000C8F140025046FFF7AEFF05460E4650465C
:102B100059464246FFF798FF084305D0012004E0DC
:102B200020463946BDE8F08D0020054346EAE076B0
:102B30002C4337430A986305E40AA0EB08000022FF
:102B4000FD0A44EA47540A3002D500200146E9E76D
:102B5000010510196941DDE9084500196941BDE821
:102B6000F04DA2E70FB4054B10B503A9044A029833
:102B700000F0F4F810BC5DF814FB0000FF0E000834
:102B8000880000207CB50C001D461646014601D089
:102B9000601E00E00020CDE90010064B6A46294681
:102BA000304600F0DBF8002C02D0009A00211170B2
:102BB0007CBD00006334000802E008C8121F08C191
:102BC000002AFAD170477047002001E001C1121FAE
:102BD000002AFBD1704700002DE9FF5F82B0002181
:102BE000DDE90430020DDDF840B0034318D044F6AF
:102BF0001050A2F2FF3242431514119801281FD041
:102C0000A5EB0B00401C5FEA000A4FF000064E4F98
:102C1000DFF83891B046504615D5CAF1000413E0EC
:102C2000119801244AA3012801D16FEA0B010298EF
:102C3000119AC0E90031C0E9024206B0BDE8F09F38
:102C4000CBF10000DFE704460021404A491842EB7F
:102C50000450CDE9001012E0E00707D032463B46B1
:102C600040464946FFF7CDFD8046894632463B4601
:102C700010461946FFF7C5FD06460F466410002CA6
:102C8000EAD1DDE90401DDE90023BAF1000F06DA3B
:102C9000FFF7B7FD42464B46FFF7B3FD05E0FFF7F0
:102CA00022FE42464B46FFF71EFE04460E46002219
:102CB000284BFFF79FFE03D84FF0FF30014607E097
:102CC0000022254B20463146FFF7F4FCFFF77AFE41
:102CD000102409E0002C0ADB0A220023FFF782FC03
:102CE000039B30321A55641E50EA0102F2D1641C73
:102CF000039AC4F111031444119A012A03D001224A
:102D000008430DD10AE0084304D000204FF0110B16
:102D1000119072E7A3EB0B056D1E0DE05B4504DD22
:102D20004FF0000205F1010504E003DA4FF0000264
:102D3000A5F10105002AECD002981199C0E90231F1
:102D4000C0E9004579E70000000014400000F03FB2
:102D5000300000000000F0430000E03F2DE9FF4F8D
:102D600095B09A46884606460025EEE1252877D19B
:102D700000242746F94A0121039400E0044316F891
:102D8000013F203B01FA03F01042F7D130782A28A6
:102D900011D06FF02F033078A0F13002092A16D835
:102DA000039A44F0020402EB820203EB4202104455
:102DB000761C0390EFE758F8042B0392002A03DAFD
:102DC000504244F40054039044F00204761C3078DE
:102DD0002E2816D116F8010F44F004042A280DD02D
:102DE0006FF02F023078A0F13003092B09D807EBE0
:102DF000870302EB4303C718761CF3E758F8047BFC
:102E0000761C30786C280FD006DC4C2817D0682848
:102E10000DD06A2814D104E0742810D07A280FD17C
:102E20000DE044F400140AE044F4801401E044F49A
:102E300040147278824202D104F58014761C761C0C
:102E4000307866280BD013DC582877D009DC0028AE
:102E500075D04528F6D04628F4D047281AD193E1FA
:102E600018E0632835D0642879D0652812D18BE129
:102E7000702873D008DC6728F1D069286FD06E28DD
:102E80000DD06F2806D1ACE073282CD0752874D0F3
:102E9000782853D05246179990476D1C54E1C4F3DB
:102EA0000250022809D003280DD0D8F800100428B9
:102EB0000DD00D6008F1040846E1D8F80010EA17BB
:102EC000C1E90052F6E7D8F800100D80F2E70D7066
:102ED000F0E718F8041B8DF8001000208DF80100B1
:102EE000EB46012003E058F804BB4FF0FF306107C8
:102EF0004FF0000102D40DE009F101018946B94209
:102F00000FDA8145F8DB1BF809100029F4D108E03D
:102F100009F1010189468142FADB1BF809100029F9
:102F2000F6D103985346A0EB090721463846179A75
:102F300000F080FA284400EB090507E044E008E1CE
:102F40000DE01BF8010B524617999047B9F10109A2
:102F5000F7D2534621463846179AF2E039E00A2163
:102F6000C4F302524FF0000B0091022A06D058F829
:102F7000040BC117032A09D00AE023E008F1070077
:102F800020F00702F2E80201904605E000B2C11706
:102F9000042A01D140B2C117002906DA0A460021ED
:102FA000404261EB02012D2202E0220504D52B22D2
:102FB0008DF80420012203E0E20701D02022F7E788
:102FC000914657E00A2100E010214FF0000B0091DC
:102FD0000BE010214FF0000B44F00404082700918F
:102FE00003E008204FF0000B0090C4F30252022AC5
:102FF00005D058F8040B0021032A08D008E008F196
:10300000070020F00702F2E80201904603E080B2D8
:10301000042A00D1C0B24FF0000922072AD5327825
:10302000702A07D0DDF800C08CF0100C5CEA0B0CA5
:1030300005D00EE040228DF80420012208E050EA7D
:10304000010306D030238DF804308DF805200222CC
:103050009146009B83F0080353EA0B030AD150EA20
:10306000010201D1620705D530228DF804204FF00E
:1030700001097F1E3278582A04D039A20C920CAA7A
:1030800002920BE03BA2F9E75B46009AFFF7AAFA2F
:103090000C9B9B5C029A521E0292137050EA010232
:1030A000F2D1029804A9081A00F1200B600702D59A
:1030B00024F4803400E001275F4502DDA7EB0B001C
:1030C00000E0002000EB0B01009003984944401AF7
:1030D0000390E00306D453462146179A039800F064
:1030E000A9F90544002706E001A85246C05D1799DA
:1030F00090476D1C7F1C4F45F6DBE0030CD5534613
:103100002146179A039800F095F9054404E0302011
:103110005246179990476D1C0099481E009000294F
:10312000F5DC08E00298029952460078491C0291A9
:10313000179990476D1CBBF10001ABF1010BF1DC5D
:103140005BE100F065F90544761C307800287FF4D7
:103150000DAE19B02846BDE8F08F00000928010027
:1031600030313233343536373839616263646566FD
:1031700000000000303132333435363738394142BF
:103180004344454600000000600700D4062708F1CC
:10319000070020F00700F0E80223804603F0004C0F
:1031A0005FEA0C0001D097A009E0200501D596A0A8
:1031B00005E0E00701D095A001E0AFF24C001390CC
:1031C000307823F0004365280CD006DC452809D070
:1031D00046281DD047287FD13BE0662818D06728B5
:1031E0007AD136E00021112F01DB112000E0781C9C
:1031F000CDE9000104A90CA8FFF7EEFCDDE90D0103
:103200000C9A4FF0000B07F10109109200914EE06B
:103210004FF000400097CDE9011004A90CA8FFF77A
:10322000DBFCDDE90D020C9B0F994FF0000B914682
:103230001093009211B9791C00EB0109B7EB09005A
:1032400003D4C0F1FF3B07F10109A9EB070001908E
:1032500042E0012F00DA01270021112F01DD1120AA
:1032600000E03846CDE9000104A90CA8FFF7B4FC42
:10327000DDE90D010C9A00914FF0000BB946109258
:1032800021070FD4009A4A4503DA914601E0A9F1DB
:103290000109B9F1010F05DD109AA9F10101515C95
:1032A0003029F4D0B84202DA10F1040F03DA012118
:1032B000CDE9011010E0002803DC8344A9EB0001F4
:1032C00002E0411C494500DD8946A0EB0B00401C93
:1032D00001904FF000400290200705D40198484526
:1032E00002DB4FF0FF30019000208DF84B00029878
:1032F0000DF14B07B0F1004F25D002200C902B2090
:103300000D90029800280CDA404202902D200D907A
:1033100007E00A210298FFF74FF93031029007F8D1
:10332000011D0C99481E0C900029F2DC029800281F
:10333000EFD1791E0D980870307800F0200040F031
:10334000450007F8020D11A8C01BC01D029013987C
:10335000007800B1012000EB0901019801EBE07158
:10336000029801440398401A401E0390E00306D4DB
:1033700053462146179A039800F05CF805441398C9
:10338000007818B15246179990476D1CE00323D579
:1033900053462146179A039800F04CF805441BE069
:1033A000BBF1000F07DB0098584504DD1098179912
:1033B00010F80B0001E01799302052469047019811
:1033C0000BF1010B401E05F10105019004D12E20E7
:1033D0005246179990476D1CB9F10001A9F10109F6
:1033E000DEDC05E017F8010B5246179990476D1C7B
:1033F0000299481E02900029F4DC53462146179A90
:1034000003989EE62D0000002B0000002000000025
:103410002DE9F041044600251E461746880404D4D1
:1034200005E039462020B0476D1C641EF9D52846BA
:10343000BDE8F0812DE9F041044600251E46904686
:10344000C80301D5302700E02027880404D505E013
:1034500041463846B0476D1C641EF9D52846BDE884
:10346000F0814A68002A06D00A68531C0B6010706D
:103470004868401E4860704764656D6F0064656D04
:103480006F20636F6D6D616E64006C6564006C65C8
:10349000642074657374006563686F006563686FAA
:1034A00020696E70757420616E64206F757470751C
:1034B00074007A65726F0031313100646566617540
:1034C0006C74207573657200736574566172007355
:1034D00065742076617200757000646F776E00729B
:1034E00069676874006C656674007461620062618B
:1034F000636B7370616365006261636B73706163BA
:10350000650064656C65746500656E746572006560
:103510006E7465720068656C700073686F77206305
:103520006F6D6D616E6420696E666F0D0A68656C03
:1035300070205B636D645D007573657273006C6908
:10354000737420616C6C207573657200636D6473B5
:10355000006C69737420616C6C20636D640076612B
:103560007273006C69737420616C6C2076617200F8
:103570006B657973006C69737420616C6C206B658A
:103580007900636C65617200636C65617220636FC2
:103590006E736F6C650000000D0A436F6D6D616E98
:1035A00064204C6973743A0D0A0000000D0A5661DC
:1035B00072204C6973743A0D0A0000000D0A5573AD
:1035C0006572204C6973743A0D0A00000D0A4B6550
:1035D00079204C6973743A0D0A000000436F6D6DD9
:1035E000616E64206E6F7420466F756E640D0A0004
:1035F0000D0A5761726E696E673A20436F6D6D6197
:103600006E6420697320746F6F206C6F6E670D0A93
:1036100000000000206973206E6F742061207661C5
:10362000720D0A0063616E277420736574207265E1
:103630006164206F6E6C79207661720D0A00000063
:1036400063616E27742073657420706F696E746592
:10365000720D0A000D0A2020205F5F20202020200C
:1036600020205F5F20205F5F20202020202020205E
:10367000202020205F5F5F5F20202020202020204E
:103680002020205F5F5F5F5F5F20205F5F5F5F5F85
:1036900020205F5F0D0A20202F202F20205F5F5FFA
:1036A000202F202F5F2F202F5F5F5F5F205F5F5FE6
:1036B0005F20202F205F5F2F5F5F20205F5F5F5FB5
:1036C00020202F205F5F2F20207C2F20202F202FD5
:1036D000202F202F0D0A202F202F5F5F2F202D5FFE
:1036E00029205F5F2F205F5F2F202D5F29205F5FE4
:1036F0002F202F205F2F2F205F205C2F205F5F2F38
:10370000205F5C205C2F202F7C5F2F202F202F5FDD
:103710002F202F200D0A2F5F5F5F5F2F5C5F5F2FD1
:103720005C5F5F2F5C5F5F2F5C5F5F2F5F2F2020F0
:10373000202F5F2F20205C5F5F5F2F5F2F202020D6
:103740002F5F5F5F2F5F2F20202F5F2F5C5F5F5FFA
:103750005F2F20200D0A2020202020202020202044
:103760002020202020202020202020202020202059
:103770002020202020202020202020202020202049
:103780002020202020202020202020202020202039
:10379000202020200D0A4275696C643A20202020E8
:1037A00020202044656320323320323032352031EE
:1037B000333A34363A35340D0A56657273696F6E92
:1037C0003A2020202020332E322E340D0A436F70F1
:1037D0007972696768743A20202028632920323082
:1037E0003230204C65747465720D0A000D0A7061E8
:1037F0007373776F7264206572726F720D0A0000C6
:10380000566172206E6F7420466F756E740D0A00DB
:103810001B5B324B0D000000434D442000000000B4
:1038200056415220000000004B4559200000000086
:10383000636F6D6D616E642068656C70206F6620CB
:1038400000000000506C6561736520696E707574CE
:103850002070617373776F72643A00004E4F4E456B
:10386000000000001B5B324A1B5B31480000000077
:103870005553455200000000E839000800000020C0
:103880008C000000B82B0008743A00088C0000205F
:103890001C070000C82B0008002100007834000835
:1038A000F91200087D340008002100008A34000865
:1038B000FF1200088E340008002000009734000832
:1038C0000B1300089C34000800080000B234000804
:1038D000B7340008BB34000800210000C8340008D9
:1038E0009D1D0008CF3400080009000000415B1B4B
:1038F000D1200008D73400080009000000425B1BFB
:10390000D5200008DA3400080019000000435B1BD2
:10391000DB200008DF3400080019000000445B1BB6
:10392000F1200008E534000800090000000000094B
:103930000B210008EA34000800190000000000080C
:1039400003220008EE340008001900000000007F88
:1039500003220008F8340008001900007E335B1BC6
:103960000722000802350008001900000000000AC4
:103970000D22000809350008001900000000000DA4
:103980000D2200080F350008002000001535000842
:103990007F2200081A350008002100003835000891
:1039A000892300083E350008002100004C3500083E
:1039B0009D23000851350008002100005E350008F5
:1039C000B1230008633500080021000070350008AD
:1039D000C523000875350008002100008235000865
:1039E000D9230008883500080000000000A24A041E
:1039F000000000000000000001020304060708099F
:103A0000020406080000000001020304010203048E
:103A100006070809000000002222000054360008B2
:103A2000F035000898350008AC350008BC350008B2
:103A3000CC350008DC350008403600082436000884
:103A400014360008003800083038000844380008F0
:103A5000EC370008643800081038000818380008EF
:103A60002038000870380008283800085C38000842
:043A70000000000052
:0400000508000131BD
:00000001FF
